{
  "contractName": "Owned",
  "abi": [
    {
      "inputs": [
        {
          "internalType": "address",
          "name": "_owner",
          "type": "address"
        }
      ],
      "stateMutability": "nonpayable",
      "type": "constructor"
    },
    {
      "anonymous": false,
      "inputs": [
        {
          "indexed": false,
          "internalType": "address",
          "name": "oldOwner",
          "type": "address"
        },
        {
          "indexed": false,
          "internalType": "address",
          "name": "newOwner",
          "type": "address"
        }
      ],
      "name": "OwnerChanged",
      "type": "event"
    },
    {
      "anonymous": false,
      "inputs": [
        {
          "indexed": false,
          "internalType": "address",
          "name": "newOwner",
          "type": "address"
        }
      ],
      "name": "OwnerNominated",
      "type": "event"
    },
    {
      "inputs": [],
      "name": "nominatedOwner",
      "outputs": [
        {
          "internalType": "address",
          "name": "",
          "type": "address"
        }
      ],
      "stateMutability": "view",
      "type": "function"
    },
    {
      "inputs": [],
      "name": "owner",
      "outputs": [
        {
          "internalType": "address",
          "name": "",
          "type": "address"
        }
      ],
      "stateMutability": "view",
      "type": "function"
    },
    {
      "inputs": [
        {
          "internalType": "address",
          "name": "_owner",
          "type": "address"
        }
      ],
      "name": "nominateNewOwner",
      "outputs": [],
      "stateMutability": "nonpayable",
      "type": "function"
    },
    {
      "inputs": [],
      "name": "acceptOwnership",
      "outputs": [],
      "stateMutability": "nonpayable",
      "type": "function"
    }
  ],
  "bytecode": "0x608060405234801561001057600080fd5b5060405161086c38038061086c83398181016040528101906100329190610137565b600073ffffffffffffffffffffffffffffffffffffffff168173ffffffffffffffffffffffffffffffffffffffff1614156100a2576040517f08c379a0000000000000000000000000000000000000000000000000000000008152600401610099906101d8565b60405180910390fd5b806000806101000a81548173ffffffffffffffffffffffffffffffffffffffff021916908373ffffffffffffffffffffffffffffffffffffffff1602179055507fb532073b38c83145e3e5135377a08bf9aab55bc0fd7c1179cd4fb995d2a5159c6000826040516101149291906101af565b60405180910390a150610252565b6000815190506101318161023b565b92915050565b60006020828403121561014957600080fd5b600061015784828501610122565b91505092915050565b61016981610209565b82525050565b600061017c6019836101f8565b91507f4f776e657220616464726573732063616e6e6f742062652030000000000000006000830152602082019050919050565b60006040820190506101c46000830185610160565b6101d16020830184610160565b9392505050565b600060208201905081810360008301526101f18161016f565b9050919050565b600082825260208201905092915050565b60006102148261021b565b9050919050565b600073ffffffffffffffffffffffffffffffffffffffff82169050919050565b61024481610209565b811461024f57600080fd5b50565b61060b806102616000396000f3fe608060405234801561001057600080fd5b5060043610610069576000357c0100000000000000000000000000000000000000000000000000000000900480631627540c1461006e57806353a47bb71461008a57806379ba5097146100a85780638da5cb5b146100b2575b600080fd5b610088600480360381019061008391906103f3565b6100d0565b005b610092610153565b60405161009f91906104f7565b60405180910390f35b6100b0610179565b005b6100ba61032a565b6040516100c791906104f7565b60405180910390f35b6100d861034e565b80600160006101000a81548173ffffffffffffffffffffffffffffffffffffffff021916908373ffffffffffffffffffffffffffffffffffffffff1602179055507f906a1c6bd7e3091ea86693dd029a831c19049ce77f1dce2ce0bab1cacbabce228160405161014891906104f7565b60405180910390a150565b600160009054906101000a900473ffffffffffffffffffffffffffffffffffffffff1681565b600160009054906101000a900473ffffffffffffffffffffffffffffffffffffffff1673ffffffffffffffffffffffffffffffffffffffff163373ffffffffffffffffffffffffffffffffffffffff1614610209576040517f08c379a00000000000000000000000000000000000000000000000000000000081526004016102009061053b565b60405180910390fd5b7fb532073b38c83145e3e5135377a08bf9aab55bc0fd7c1179cd4fb995d2a5159c60008054906101000a900473ffffffffffffffffffffffffffffffffffffffff16600160009054906101000a900473ffffffffffffffffffffffffffffffffffffffff1660405161027c929190610512565b60405180910390a1600160009054906101000a900473ffffffffffffffffffffffffffffffffffffffff166000806101000a81548173ffffffffffffffffffffffffffffffffffffffff021916908373ffffffffffffffffffffffffffffffffffffffff1602179055506000600160006101000a81548173ffffffffffffffffffffffffffffffffffffffff021916908373ffffffffffffffffffffffffffffffffffffffff160217905550565b60008054906101000a900473ffffffffffffffffffffffffffffffffffffffff1681565b60008054906101000a900473ffffffffffffffffffffffffffffffffffffffff1673ffffffffffffffffffffffffffffffffffffffff163373ffffffffffffffffffffffffffffffffffffffff16146103dc576040517f08c379a00000000000000000000000000000000000000000000000000000000081526004016103d39061055b565b60405180910390fd5b565b6000813590506103ed816105be565b92915050565b60006020828403121561040557600080fd5b6000610413848285016103de565b91505092915050565b6104258161058c565b82525050565b600061043860358361057b565b91507f596f75206d757374206265206e6f6d696e61746564206265666f726520796f7560008301527f2063616e20616363657074206f776e65727368697000000000000000000000006020830152604082019050919050565b600061049e602f8361057b565b91507f4f6e6c792074686520636f6e7472616374206f776e6572206d6179207065726660008301527f6f726d207468697320616374696f6e00000000000000000000000000000000006020830152604082019050919050565b600060208201905061050c600083018461041c565b92915050565b6000604082019050610527600083018561041c565b610534602083018461041c565b9392505050565b600060208201905081810360008301526105548161042b565b9050919050565b6000602082019050818103600083015261057481610491565b9050919050565b600082825260208201905092915050565b60006105978261059e565b9050919050565b600073ffffffffffffffffffffffffffffffffffffffff82169050919050565b6105c78161058c565b81146105d257600080fd5b5056fea264697066735822122026a7ae794c9132fe4560dd6efdd560b98fdd5a42a49b84dcb31f4af96d57864764736f6c63430008000033",
  "immutableReferences": {},
  "source": "// SPDX-License-Identifier: UNLICENSED\npragma solidity ^0.8.0;\n\nimport \"@openzeppelin/contracts/utils/math/Math.sol\";\nimport \"@openzeppelin/contracts/utils/math/SafeMath.sol\";\nimport \"@openzeppelin/contracts/token/ERC20/ERC20.sol\";\nimport \"@openzeppelin/contracts/token/ERC20/utils/SafeERC20.sol\";\nimport \"@openzeppelin/contracts/security/ReentrancyGuard.sol\";\n\n// Inheritance\n// import \"./interfaces/IStakingRewards.sol\";\n// import \"./RewardsDistributionRecipient.sol\";\n// import \"./Pausable.sol\";\n// import \"./Owned.sol\";\n// https://docs.synthetix.io/contracts/Owned\n//SPDX LICENSE : MIT\n\n\n\n// Inheritance\n// import \"./interfaces/IStakingRewards.sol\";\n// import \"./RewardsDistributionRecipient.sol\";\n// import \"./Pausable.sol\";\n// import \"./Owned.sol\";\n// https://docs.synthetix.io/contracts/Owned\ncontract Owned {\n    address public owner;\n    address public nominatedOwner;\n\n    constructor(address _owner) public {\n        require(_owner != address(0), \"Owner address cannot be 0\");\n        owner = _owner;\n        emit OwnerChanged(address(0), _owner);\n    }\n\n    function nominateNewOwner(address _owner) external onlyOwner {\n        nominatedOwner = _owner;\n        emit OwnerNominated(_owner);\n    }\n\n    function acceptOwnership() external {\n        require(msg.sender == nominatedOwner, \"You must be nominated before you can accept ownership\");\n        emit OwnerChanged(owner, nominatedOwner);\n        owner = nominatedOwner;\n        nominatedOwner = address(0);\n    }\n\n    modifier onlyOwner {\n        _onlyOwner();\n        _;\n    }\n\n    function _onlyOwner() private view {\n        require(msg.sender == owner, \"Only the contract owner may perform this action\");\n    }\n\n    event OwnerNominated(address newOwner);\n    event OwnerChanged(address oldOwner, address newOwner);\n}\n\n\n\n// https://docs.synthetix.io/contracts/Pausable\nabstract\ncontract Pausable is Owned {\n    uint public lastPauseTime;\n    bool public paused;\n\n    constructor() internal {\n        // This contract is abstract, and thus cannot be instantiated directly\n        require(owner != address(0), \"Owner must be set\");\n        // Paused will be false, and lastPauseTime will be 0 upon initialisation\n    }\n\n    /**\n     * @notice Change the paused state of the contract\n     * @dev Only the contract owner may call this.\n     */\n    function setPaused(bool _paused) external onlyOwner {\n        // Ensure we're actually changing the state before we do anything\n        if (_paused == paused) {\n            return;\n        }\n\n        // Set our paused state.\n        paused = _paused;\n\n        // If applicable, set the last pause time.\n        if (paused) {\n            lastPauseTime = block.timestamp;\n        }\n\n        // Let everyone know that our pause state has changed.\n        emit PauseChanged(paused);\n    }\n\n    event PauseChanged(bool isPaused);\n\n    modifier notPaused {\n        require(!paused, \"This action cannot be performed while the contract is paused\");\n        _;\n    }\n}\n\n\n// https://docs.synthetix.io/contracts/RewardsDistributionRecipient\nabstract\ncontract RewardsDistributionRecipient is Owned {\n    address public rewardsDistribution;\n\n    function notifyRewardAmount(uint256 reward) external virtual;\n\n    modifier onlyRewardsDistribution() {\n        require(msg.sender == rewardsDistribution, \"Caller is not RewardsDistribution contract\");\n        _;\n    }\n\n    function setRewardsDistribution(address _rewardsDistribution) external onlyOwner {\n        rewardsDistribution = _rewardsDistribution;\n    }\n}\n\n\ninterface IStakingRewards {\n    // Views\n    function lastTimeRewardApplicable() external view returns (uint256);\n\n    function rewardPerToken() external view returns (uint256);\n\n    function earned(address account) external view returns (uint256);\n\n    function getRewardForDuration() external view returns (uint256);\n\n    function totalSupply() external view returns (uint256);\n\n    function balanceOf(address account) external view returns (uint256);\n\n    // Mutative\n\n    function stake(uint256 amount) external;\n\n    function withdraw(uint256 amount) external;\n\n    function getReward() external;\n\n    function exit() external;\n}\n\ncontract X22 is ERC20 {\n   \n    constructor() public ERC20(\"x22Dev\", \"x22d\") {\n       \n        _mint(msg.sender, 100000000 * 10 ** 18);\n    }\n}\n\ncontract StakingRewards is IStakingRewards, RewardsDistributionRecipient, ReentrancyGuard, Pausable {\n    using SafeMath for uint256;\n     using SafeERC20 for X22;\n\n    /* ========== STATE VARIABLES ========== */\n\n    X22 public rewardsToken;\n   X22 public stakingToken;\n    uint256 public periodFinish = 0;\n    uint256 public rewardRate = 0;\n    uint256 public rewardsDuration = 7 days;\n    uint256 public lastUpdateTime;\n    uint256 public rewardPerTokenStored;\n\n    mapping(address => uint256) public userRewardPerTokenPaid;\n    mapping(address => uint256) public rewards;\n\n    uint256 private _totalSupply;\n    mapping(address => uint256) private _balances;\n\n    /* ========== CONSTRUCTOR ========== */\n\n    constructor(\n        address _owner,\n        address _rewardsDistribution,\n        address _rewardsToken,\n        address _stakingToken\n    ) public Owned(_owner) {\n        \n        rewardsToken = X22(_rewardsToken);\n        stakingToken = X22(_stakingToken);\n        rewardsDistribution = _rewardsDistribution;\n    }\n\n    /* ========== VIEWS ========== */\n\n    function totalSupply() external view override returns (uint256) {\n        return _totalSupply;\n    }\n\n    function balanceOf(address account) external view override returns (uint256) {\n        return _balances[account];\n    }\n\n    function lastTimeRewardApplicable() public view override returns (uint256) {\n        return Math.min(block.timestamp, periodFinish);\n    }\n\n    function rewardPerToken() public view override returns (uint256) {\n        if (_totalSupply == 0) {\n            return rewardPerTokenStored;\n        }\n        return\n            rewardPerTokenStored.add(\n                lastTimeRewardApplicable().sub(lastUpdateTime).mul(rewardRate).mul(1e18).div(_totalSupply)\n            );\n    }\n\n    function earned(address account) public view override returns (uint256) {\n        return _balances[account].mul(rewardPerToken().sub(userRewardPerTokenPaid[account])).div(1e18).add(rewards[account]);\n    }\n\n    function getRewardForDuration() external view override returns (uint256) {\n        return rewardRate.mul(rewardsDuration);\n        \n        \n    }\n\n    /* ========== MUTATIVE FUNCTIONS ========== */\n\n    function stake(uint256 amount) external override nonReentrant notPaused updateReward(msg.sender) {\n        require(amount > 0, \"Cannot stake 0\");\n        _totalSupply = _totalSupply.add(amount);\n        _balances[msg.sender] = _balances[msg.sender].add(amount);\n        stakingToken.safeTransferFrom(msg.sender, address(this), amount);\n        emit Staked(msg.sender, amount);\n    }\n\n    function withdraw(uint256 amount) public override nonReentrant updateReward(msg.sender) {\n        require(amount > 0, \"Cannot withdraw 0\");\n        _totalSupply = _totalSupply.sub(amount);\n        _balances[msg.sender] = _balances[msg.sender].sub(amount);\n        stakingToken.safeTransfer(msg.sender, amount);\n        emit Withdrawn(msg.sender, amount);\n    }\n\n    function getReward() public override nonReentrant updateReward(msg.sender) {\n        uint256 reward = rewards[msg.sender];\n        if (reward > 0) {\n            rewards[msg.sender] = 0;\n            rewardsToken.safeTransfer(msg.sender, reward);\n            emit RewardPaid(msg.sender, reward);\n        }\n    }\n\n    function exit() external override {\n        withdraw(_balances[msg.sender]);\n        getReward();\n    }\n\n    /* ========== RESTRICTED FUNCTIONS ========== */\n\n    function notifyRewardAmount(uint256 reward) external override onlyRewardsDistribution updateReward(address(0)) {\n        if (block.timestamp >= periodFinish) {\n            rewardRate = reward.div(rewardsDuration);\n        } else {\n            uint256 remaining = periodFinish.sub(block.timestamp);\n            uint256 leftover = remaining.mul(rewardRate);\n            rewardRate = reward.add(leftover).div(rewardsDuration);\n        }\n\n        // Ensure the provided reward amount is not more than the balance in the contract.\n        // This keeps the reward rate in the right range, preventing overflows due to\n        // very high values of rewardRate in the earned and rewardsPerToken functions;\n        // Reward + leftover must be less than 2^256 / 10^18 to avoid overflow.\n        uint balance = rewardsToken.balanceOf(address(this));\n        require(rewardRate <= balance.div(rewardsDuration), \"Provided reward too high\");\n\n        lastUpdateTime = block.timestamp;\n        periodFinish = block.timestamp.add(rewardsDuration);\n        emit RewardAdded(reward);\n    }\n\n    // Added to support recovering LP Rewards from other systems to be distributed to holders\n    function recoverERC20(address tokenAddress, uint256 tokenAmount) external onlyOwner {\n        // Cannot recover the staking token or the rewards token\n        require(\n            tokenAddress != address(stakingToken) && tokenAddress != address(rewardsToken),\n            \"Cannot withdraw the staking or rewards tokens\"\n        );\n       X22(tokenAddress).safeTransfer(owner, tokenAmount);\n        emit Recovered(tokenAddress, tokenAmount);\n    }\n\n    function setRewardsDuration(uint256 _rewardsDuration) external onlyOwner {\n        require(\n            periodFinish == 0 || block.timestamp > periodFinish,\n            \"Previous rewards period must be complete before changing the duration for the new period\"\n        );\n        rewardsDuration = _rewardsDuration;\n        emit RewardsDurationUpdated(rewardsDuration);\n    }\n\n    /* ========== MODIFIERS ========== */\n\n    modifier updateReward(address account) {\n        rewardPerTokenStored = rewardPerToken();\n        lastUpdateTime = lastTimeRewardApplicable();\n        if (account != address(0)) {\n            rewards[account] = earned(account);\n            userRewardPerTokenPaid[account] = rewardPerTokenStored;\n        }\n        _;\n    }\n\n    /* ========== EVENTS ========== */\n\n    event RewardAdded(uint256 reward);\n    event Staked(address indexed user, uint256 amount);\n    event Withdrawn(address indexed user, uint256 amount);\n    event RewardPaid(address indexed user, uint256 reward);\n    event RewardsDurationUpdated(uint256 newDuration);\n    event Recovered(address token, uint256 amount);\n}",
  "sourcePath": "/home/ishita/Documents/Staking-x22/contracts/Staking.sol",
  "compiler": {
    "name": "solc",
    "version": "0.8.0+commit.c7dfd78e.Emscripten.clang"
  },
  "schemaVersion": "3.3.4",
  "updatedAt": "2021-05-10T11:50:39.472Z",
  "devdoc": {
    "kind": "dev",
    "methods": {},
    "version": 1
  },
  "userdoc": {
    "kind": "user",
    "methods": {},
    "version": 1
  }
}