{
  "contractName": "StakingRewards",
  "abi": [
    {
      "inputs": [
        {
          "internalType": "address",
          "name": "_owner",
          "type": "address"
        },
        {
          "internalType": "address",
          "name": "_rewardsDistribution",
          "type": "address"
        },
        {
          "internalType": "address",
          "name": "_rewardsToken",
          "type": "address"
        },
        {
          "internalType": "address",
          "name": "_stakingToken",
          "type": "address"
        }
      ],
      "stateMutability": "nonpayable",
      "type": "constructor"
    },
    {
      "anonymous": false,
      "inputs": [
        {
          "indexed": false,
          "internalType": "address",
          "name": "oldOwner",
          "type": "address"
        },
        {
          "indexed": false,
          "internalType": "address",
          "name": "newOwner",
          "type": "address"
        }
      ],
      "name": "OwnerChanged",
      "type": "event"
    },
    {
      "anonymous": false,
      "inputs": [
        {
          "indexed": false,
          "internalType": "address",
          "name": "newOwner",
          "type": "address"
        }
      ],
      "name": "OwnerNominated",
      "type": "event"
    },
    {
      "anonymous": false,
      "inputs": [
        {
          "indexed": false,
          "internalType": "bool",
          "name": "isPaused",
          "type": "bool"
        }
      ],
      "name": "PauseChanged",
      "type": "event"
    },
    {
      "anonymous": false,
      "inputs": [
        {
          "indexed": false,
          "internalType": "address",
          "name": "token",
          "type": "address"
        },
        {
          "indexed": false,
          "internalType": "uint256",
          "name": "amount",
          "type": "uint256"
        }
      ],
      "name": "Recovered",
      "type": "event"
    },
    {
      "anonymous": false,
      "inputs": [
        {
          "indexed": false,
          "internalType": "uint256",
          "name": "reward",
          "type": "uint256"
        }
      ],
      "name": "RewardAdded",
      "type": "event"
    },
    {
      "anonymous": false,
      "inputs": [
        {
          "indexed": true,
          "internalType": "address",
          "name": "user",
          "type": "address"
        },
        {
          "indexed": false,
          "internalType": "uint256",
          "name": "reward",
          "type": "uint256"
        }
      ],
      "name": "RewardPaid",
      "type": "event"
    },
    {
      "anonymous": false,
      "inputs": [
        {
          "indexed": false,
          "internalType": "uint256",
          "name": "newDuration",
          "type": "uint256"
        }
      ],
      "name": "RewardsDurationUpdated",
      "type": "event"
    },
    {
      "anonymous": false,
      "inputs": [
        {
          "indexed": true,
          "internalType": "address",
          "name": "user",
          "type": "address"
        },
        {
          "indexed": false,
          "internalType": "uint256",
          "name": "amount",
          "type": "uint256"
        }
      ],
      "name": "Staked",
      "type": "event"
    },
    {
      "anonymous": false,
      "inputs": [
        {
          "indexed": true,
          "internalType": "address",
          "name": "user",
          "type": "address"
        },
        {
          "indexed": false,
          "internalType": "uint256",
          "name": "amount",
          "type": "uint256"
        }
      ],
      "name": "Withdrawn",
      "type": "event"
    },
    {
      "inputs": [],
      "name": "acceptOwnership",
      "outputs": [],
      "stateMutability": "nonpayable",
      "type": "function"
    },
    {
      "inputs": [],
      "name": "lastPauseTime",
      "outputs": [
        {
          "internalType": "uint256",
          "name": "",
          "type": "uint256"
        }
      ],
      "stateMutability": "view",
      "type": "function"
    },
    {
      "inputs": [],
      "name": "lastUpdateTime",
      "outputs": [
        {
          "internalType": "uint256",
          "name": "",
          "type": "uint256"
        }
      ],
      "stateMutability": "view",
      "type": "function"
    },
    {
      "inputs": [
        {
          "internalType": "address",
          "name": "_owner",
          "type": "address"
        }
      ],
      "name": "nominateNewOwner",
      "outputs": [],
      "stateMutability": "nonpayable",
      "type": "function"
    },
    {
      "inputs": [],
      "name": "nominatedOwner",
      "outputs": [
        {
          "internalType": "address",
          "name": "",
          "type": "address"
        }
      ],
      "stateMutability": "view",
      "type": "function"
    },
    {
      "inputs": [],
      "name": "owner",
      "outputs": [
        {
          "internalType": "address",
          "name": "",
          "type": "address"
        }
      ],
      "stateMutability": "view",
      "type": "function"
    },
    {
      "inputs": [],
      "name": "paused",
      "outputs": [
        {
          "internalType": "bool",
          "name": "",
          "type": "bool"
        }
      ],
      "stateMutability": "view",
      "type": "function"
    },
    {
      "inputs": [],
      "name": "periodFinish",
      "outputs": [
        {
          "internalType": "uint256",
          "name": "",
          "type": "uint256"
        }
      ],
      "stateMutability": "view",
      "type": "function"
    },
    {
      "inputs": [],
      "name": "rewardPerTokenStored",
      "outputs": [
        {
          "internalType": "uint256",
          "name": "",
          "type": "uint256"
        }
      ],
      "stateMutability": "view",
      "type": "function"
    },
    {
      "inputs": [],
      "name": "rewardRate",
      "outputs": [
        {
          "internalType": "uint256",
          "name": "",
          "type": "uint256"
        }
      ],
      "stateMutability": "view",
      "type": "function"
    },
    {
      "inputs": [
        {
          "internalType": "address",
          "name": "",
          "type": "address"
        }
      ],
      "name": "rewards",
      "outputs": [
        {
          "internalType": "uint256",
          "name": "",
          "type": "uint256"
        }
      ],
      "stateMutability": "view",
      "type": "function"
    },
    {
      "inputs": [],
      "name": "rewardsDistribution",
      "outputs": [
        {
          "internalType": "address",
          "name": "",
          "type": "address"
        }
      ],
      "stateMutability": "view",
      "type": "function"
    },
    {
      "inputs": [],
      "name": "rewardsDuration",
      "outputs": [
        {
          "internalType": "uint256",
          "name": "",
          "type": "uint256"
        }
      ],
      "stateMutability": "view",
      "type": "function"
    },
    {
      "inputs": [],
      "name": "rewardsToken",
      "outputs": [
        {
          "internalType": "contract X22",
          "name": "",
          "type": "address"
        }
      ],
      "stateMutability": "view",
      "type": "function"
    },
    {
      "inputs": [
        {
          "internalType": "bool",
          "name": "_paused",
          "type": "bool"
        }
      ],
      "name": "setPaused",
      "outputs": [],
      "stateMutability": "nonpayable",
      "type": "function"
    },
    {
      "inputs": [
        {
          "internalType": "address",
          "name": "_rewardsDistribution",
          "type": "address"
        }
      ],
      "name": "setRewardsDistribution",
      "outputs": [],
      "stateMutability": "nonpayable",
      "type": "function"
    },
    {
      "inputs": [],
      "name": "stakingToken",
      "outputs": [
        {
          "internalType": "contract X22",
          "name": "",
          "type": "address"
        }
      ],
      "stateMutability": "view",
      "type": "function"
    },
    {
      "inputs": [
        {
          "internalType": "address",
          "name": "",
          "type": "address"
        }
      ],
      "name": "userRewardPerTokenPaid",
      "outputs": [
        {
          "internalType": "uint256",
          "name": "",
          "type": "uint256"
        }
      ],
      "stateMutability": "view",
      "type": "function"
    },
    {
      "inputs": [],
      "name": "totalSupply",
      "outputs": [
        {
          "internalType": "uint256",
          "name": "",
          "type": "uint256"
        }
      ],
      "stateMutability": "view",
      "type": "function"
    },
    {
      "inputs": [
        {
          "internalType": "address",
          "name": "account",
          "type": "address"
        }
      ],
      "name": "balanceOf",
      "outputs": [
        {
          "internalType": "uint256",
          "name": "",
          "type": "uint256"
        }
      ],
      "stateMutability": "view",
      "type": "function"
    },
    {
      "inputs": [],
      "name": "lastTimeRewardApplicable",
      "outputs": [
        {
          "internalType": "uint256",
          "name": "",
          "type": "uint256"
        }
      ],
      "stateMutability": "view",
      "type": "function"
    },
    {
      "inputs": [],
      "name": "rewardPerToken",
      "outputs": [
        {
          "internalType": "uint256",
          "name": "",
          "type": "uint256"
        }
      ],
      "stateMutability": "view",
      "type": "function"
    },
    {
      "inputs": [
        {
          "internalType": "address",
          "name": "account",
          "type": "address"
        }
      ],
      "name": "earned",
      "outputs": [
        {
          "internalType": "uint256",
          "name": "",
          "type": "uint256"
        }
      ],
      "stateMutability": "view",
      "type": "function"
    },
    {
      "inputs": [],
      "name": "getRewardForDuration",
      "outputs": [
        {
          "internalType": "uint256",
          "name": "",
          "type": "uint256"
        }
      ],
      "stateMutability": "view",
      "type": "function"
    },
    {
      "inputs": [
        {
          "internalType": "uint256",
          "name": "amount",
          "type": "uint256"
        }
      ],
      "name": "stake",
      "outputs": [],
      "stateMutability": "nonpayable",
      "type": "function"
    },
    {
      "inputs": [
        {
          "internalType": "uint256",
          "name": "amount",
          "type": "uint256"
        }
      ],
      "name": "withdraw",
      "outputs": [],
      "stateMutability": "nonpayable",
      "type": "function"
    },
    {
      "inputs": [],
      "name": "getReward",
      "outputs": [],
      "stateMutability": "nonpayable",
      "type": "function"
    },
    {
      "inputs": [],
      "name": "exit",
      "outputs": [],
      "stateMutability": "nonpayable",
      "type": "function"
    },
    {
      "inputs": [
        {
          "internalType": "uint256",
          "name": "reward",
          "type": "uint256"
        }
      ],
      "name": "notifyRewardAmount",
      "outputs": [],
      "stateMutability": "nonpayable",
      "type": "function"
    },
    {
      "inputs": [
        {
          "internalType": "address",
          "name": "tokenAddress",
          "type": "address"
        },
        {
          "internalType": "uint256",
          "name": "tokenAmount",
          "type": "uint256"
        }
      ],
      "name": "recoverERC20",
      "outputs": [],
      "stateMutability": "nonpayable",
      "type": "function"
    },
    {
      "inputs": [
        {
          "internalType": "uint256",
          "name": "_rewardsDuration",
          "type": "uint256"
        }
      ],
      "name": "setRewardsDuration",
      "outputs": [],
      "stateMutability": "nonpayable",
      "type": "function"
    }
  ],
  "bytecode": "0x60806040526000600755600060085562093a806009553480156200002257600080fd5b5060405162003012380380620030128339818101604052810190620000489190620002b8565b83600073ffffffffffffffffffffffffffffffffffffffff168173ffffffffffffffffffffffffffffffffffffffff161415620000bc576040517f08c379a0000000000000000000000000000000000000000000000000000000008152600401620000b39062000408565b60405180910390fd5b806000806101000a81548173ffffffffffffffffffffffffffffffffffffffff021916908373ffffffffffffffffffffffffffffffffffffffff1602179055507fb532073b38c83145e3e5135377a08bf9aab55bc0fd7c1179cd4fb995d2a5159c60008260405162000130929190620003b9565b60405180910390a1506001600381905550600073ffffffffffffffffffffffffffffffffffffffff1660008054906101000a900473ffffffffffffffffffffffffffffffffffffffff1673ffffffffffffffffffffffffffffffffffffffff161415620001d4576040517f08c379a0000000000000000000000000000000000000000000000000000000008152600401620001cb90620003e6565b60405180910390fd5b81600560016101000a81548173ffffffffffffffffffffffffffffffffffffffff021916908373ffffffffffffffffffffffffffffffffffffffff16021790555080600660006101000a81548173ffffffffffffffffffffffffffffffffffffffff021916908373ffffffffffffffffffffffffffffffffffffffff16021790555082600260006101000a81548173ffffffffffffffffffffffffffffffffffffffff021916908373ffffffffffffffffffffffffffffffffffffffff1602179055505050505062000489565b600081519050620002b2816200046f565b92915050565b60008060008060808587031215620002cf57600080fd5b6000620002df87828801620002a1565b9450506020620002f287828801620002a1565b93505060406200030587828801620002a1565b92505060606200031887828801620002a1565b91505092959194509250565b6200032f816200043b565b82525050565b6000620003446011836200042a565b91507f4f776e6572206d757374206265207365740000000000000000000000000000006000830152602082019050919050565b6000620003866019836200042a565b91507f4f776e657220616464726573732063616e6e6f742062652030000000000000006000830152602082019050919050565b6000604082019050620003d0600083018562000324565b620003df602083018462000324565b9392505050565b60006020820190508181036000830152620004018162000335565b9050919050565b60006020820190508181036000830152620004238162000377565b9050919050565b600082825260208201905092915050565b600062000448826200044f565b9050919050565b600073ffffffffffffffffffffffffffffffffffffffff82169050919050565b6200047a816200043b565b81146200048657600080fd5b50565b612b7980620004996000396000f3fe608060405234801561001057600080fd5b5060043610610201576000357c01000000000000000000000000000000000000000000000000000000009004806372f702f31161012c578063a694fc3a116100bf578063d1af0c7d1161008e578063d1af0c7d14610540578063df136d651461055e578063e9fad8ee1461057c578063ebe2b12b1461058657610201565b8063a694fc3a146104cc578063c8f33c91146104e8578063cc1a378f14610506578063cd3daf9d1461052257610201565b80638980f11f116100fb5780638980f11f146104445780638b876347146104605780638da5cb5b1461049057806391b4ded9146104ae57610201565b806372f702f3146103e057806379ba5097146103fe5780637b0a47ee1461040857806380faa57d1461042657610201565b80632e1a7d4d116101a45780633fc6df6e116101735780633fc6df6e1461035657806353a47bb7146103745780635c975abb1461039257806370a08231146103b057610201565b80632e1a7d4d146102f6578063386a9525146103125780633c6b16ab146103305780633d18b9121461034c57610201565b806316c38b3c116101e057806316c38b3c1461028257806318160ddd1461029e57806319762143146102bc5780631c1f78eb146102d857610201565b80628cc262146102065780630700037d146102365780631627540c14610266575b600080fd5b610220600480360381019061021b9190611f96565b6105a4565b60405161022d919061288e565b60405180910390f35b610250600480360381019061024b9190611f96565b6106c2565b60405161025d919061288e565b60405180910390f35b610280600480360381019061027b9190611f96565b6106da565b005b61029c60048036038101906102979190611ffb565b61075d565b005b6102a6610806565b6040516102b3919061288e565b60405180910390f35b6102d660048036038101906102d19190611f96565b610810565b005b6102e061085c565b6040516102ed919061288e565b60405180910390f35b610310600480360381019061030b919061204d565b61087a565b005b61031a610b46565b604051610327919061288e565b60405180910390f35b61034a6004803603810190610345919061204d565b610b4c565b005b610354610ece565b005b61035e61113a565b60405161036b91906125f2565b60405180910390f35b61037c611160565b60405161038991906125f2565b60405180910390f35b61039a611186565b6040516103a79190612696565b60405180910390f35b6103ca60048036038101906103c59190611f96565b611199565b6040516103d7919061288e565b60405180910390f35b6103e86111e2565b6040516103f591906126b1565b60405180910390f35b610406611208565b005b6104106113b9565b60405161041d919061288e565b60405180910390f35b61042e6113bf565b60405161043b919061288e565b60405180910390f35b61045e60048036038101906104599190611fbf565b6113d2565b005b61047a60048036038101906104759190611f96565b61154d565b604051610487919061288e565b60405180910390f35b610498611565565b6040516104a591906125f2565b60405180910390f35b6104b6611589565b6040516104c3919061288e565b60405180910390f35b6104e660048036038101906104e1919061204d565b61158f565b005b6104f06118ad565b6040516104fd919061288e565b60405180910390f35b610520600480360381019061051b919061204d565b6118b3565b005b61052a61194f565b604051610537919061288e565b60405180910390f35b6105486119dd565b60405161055591906126b1565b60405180910390f35b610566611a03565b604051610573919061288e565b60405180910390f35b610584611a09565b005b61058e611a5b565b60405161059b919061288e565b60405180910390f35b60006106bb600d60008473ffffffffffffffffffffffffffffffffffffffff1673ffffffffffffffffffffffffffffffffffffffff168152602001908152602001600020546106ad670de0b6b3a764000061069f610651600c60008973ffffffffffffffffffffffffffffffffffffffff1673ffffffffffffffffffffffffffffffffffffffff1681526020019081526020016000205461064361194f565b611a6190919063ffffffff16565b600f60008973ffffffffffffffffffffffffffffffffffffffff1673ffffffffffffffffffffffffffffffffffffffff16815260200190815260200160002054611a7790919063ffffffff16565b611a8d90919063ffffffff16565b611aa390919063ffffffff16565b9050919050565b600d6020528060005260406000206000915090505481565b6106e2611ab9565b80600160006101000a81548173ffffffffffffffffffffffffffffffffffffffff021916908373ffffffffffffffffffffffffffffffffffffffff1602179055507f906a1c6bd7e3091ea86693dd029a831c19049ce77f1dce2ce0bab1cacbabce228160405161075291906125f2565b60405180910390a150565b610765611ab9565b600560009054906101000a900460ff161515811515141561078557610803565b80600560006101000a81548160ff021916908315150217905550600560009054906101000a900460ff16156107bc57426004819055505b7f8fb6c181ee25a520cf3dd6565006ef91229fcfe5a989566c2a3b8c115570cec5600560009054906101000a900460ff166040516107fa9190612696565b60405180910390a15b50565b6000600e54905090565b610818611ab9565b80600260006101000a81548173ffffffffffffffffffffffffffffffffffffffff021916908373ffffffffffffffffffffffffffffffffffffffff16021790555050565b6000610875600954600854611a7790919063ffffffff16565b905090565b600260035414156108c0576040517f08c379a00000000000000000000000000000000000000000000000000000000081526004016108b79061286e565b60405180910390fd5b6002600381905550336108d161194f565b600b819055506108df6113bf565b600a81905550600073ffffffffffffffffffffffffffffffffffffffff168173ffffffffffffffffffffffffffffffffffffffff16146109ac57610922816105a4565b600d60008373ffffffffffffffffffffffffffffffffffffffff1673ffffffffffffffffffffffffffffffffffffffff16815260200190815260200160002081905550600b54600c60008373ffffffffffffffffffffffffffffffffffffffff1673ffffffffffffffffffffffffffffffffffffffff168152602001908152602001600020819055505b600082116109ef576040517f08c379a00000000000000000000000000000000000000000000000000000000081526004016109e69061278e565b60405180910390fd5b610a0482600e54611a6190919063ffffffff16565b600e81905550610a5c82600f60003373ffffffffffffffffffffffffffffffffffffffff1673ffffffffffffffffffffffffffffffffffffffff16815260200190815260200160002054611a6190919063ffffffff16565b600f60003373ffffffffffffffffffffffffffffffffffffffff1673ffffffffffffffffffffffffffffffffffffffff16815260200190815260200160002081905550610aec3383600660009054906101000a900473ffffffffffffffffffffffffffffffffffffffff1673ffffffffffffffffffffffffffffffffffffffff16611b499092919063ffffffff16565b3373ffffffffffffffffffffffffffffffffffffffff167f7084f5476618d8e60b11ef0d7d3f06914655adb8793e28ff7f018d4c76d505d583604051610b32919061288e565b60405180910390a250600160038190555050565b60095481565b600260009054906101000a900473ffffffffffffffffffffffffffffffffffffffff1673ffffffffffffffffffffffffffffffffffffffff163373ffffffffffffffffffffffffffffffffffffffff1614610bdc576040517f08c379a0000000000000000000000000000000000000000000000000000000008152600401610bd39061282e565b60405180910390fd5b6000610be661194f565b600b81905550610bf46113bf565b600a81905550600073ffffffffffffffffffffffffffffffffffffffff168173ffffffffffffffffffffffffffffffffffffffff1614610cc157610c37816105a4565b600d60008373ffffffffffffffffffffffffffffffffffffffff1673ffffffffffffffffffffffffffffffffffffffff16815260200190815260200160002081905550600b54600c60008373ffffffffffffffffffffffffffffffffffffffff1673ffffffffffffffffffffffffffffffffffffffff168152602001908152602001600020819055505b6007544210610cea57610cdf60095483611a8d90919063ffffffff16565b600881905550610d4c565b6000610d0142600754611a6190919063ffffffff16565b90506000610d1a60085483611a7790919063ffffffff16565b9050610d43600954610d358387611aa390919063ffffffff16565b611a8d90919063ffffffff16565b60088190555050505b6000600560019054906101000a900473ffffffffffffffffffffffffffffffffffffffff1673ffffffffffffffffffffffffffffffffffffffff166370a08231306040518263ffffffff167c0100000000000000000000000000000000000000000000000000000000028152600401610dc591906125f2565b60206040518083038186803b158015610ddd57600080fd5b505afa158015610df1573d6000803e3d6000fd5b505050506040513d601f19601f82011682018060405250810190610e159190612076565b9050610e2c60095482611a8d90919063ffffffff16565b6008541115610e70576040517f08c379a0000000000000000000000000000000000000000000000000000000008152600401610e67906127ae565b60405180910390fd5b42600a81905550610e8c60095442611aa390919063ffffffff16565b6007819055507fde88a922e0d3b88b24e9623efeb464919c6bf9f66857a65e2bfcf2ce87a9433d83604051610ec1919061288e565b60405180910390a1505050565b60026003541415610f14576040517f08c379a0000000000000000000000000000000000000000000000000000000008152600401610f0b9061286e565b60405180910390fd5b600260038190555033610f2561194f565b600b81905550610f336113bf565b600a81905550600073ffffffffffffffffffffffffffffffffffffffff168173ffffffffffffffffffffffffffffffffffffffff161461100057610f76816105a4565b600d60008373ffffffffffffffffffffffffffffffffffffffff1673ffffffffffffffffffffffffffffffffffffffff16815260200190815260200160002081905550600b54600c60008373ffffffffffffffffffffffffffffffffffffffff1673ffffffffffffffffffffffffffffffffffffffff168152602001908152602001600020819055505b6000600d60003373ffffffffffffffffffffffffffffffffffffffff1673ffffffffffffffffffffffffffffffffffffffff168152602001908152602001600020549050600081111561112e576000600d60003373ffffffffffffffffffffffffffffffffffffffff1673ffffffffffffffffffffffffffffffffffffffff168152602001908152602001600020819055506110df3382600560019054906101000a900473ffffffffffffffffffffffffffffffffffffffff1673ffffffffffffffffffffffffffffffffffffffff16611b499092919063ffffffff16565b3373ffffffffffffffffffffffffffffffffffffffff167fe2403640ba68fed3a2f88b7557551d1993f84b99bb10ff833f0cf8db0c5e048682604051611125919061288e565b60405180910390a25b50506001600381905550565b600260009054906101000a900473ffffffffffffffffffffffffffffffffffffffff1681565b600160009054906101000a900473ffffffffffffffffffffffffffffffffffffffff1681565b600560009054906101000a900460ff1681565b6000600f60008373ffffffffffffffffffffffffffffffffffffffff1673ffffffffffffffffffffffffffffffffffffffff168152602001908152602001600020549050919050565b600660009054906101000a900473ffffffffffffffffffffffffffffffffffffffff1681565b600160009054906101000a900473ffffffffffffffffffffffffffffffffffffffff1673ffffffffffffffffffffffffffffffffffffffff163373ffffffffffffffffffffffffffffffffffffffff1614611298576040517f08c379a000000000000000000000000000000000000000000000000000000000815260040161128f9061270e565b60405180910390fd5b7fb532073b38c83145e3e5135377a08bf9aab55bc0fd7c1179cd4fb995d2a5159c60008054906101000a900473ffffffffffffffffffffffffffffffffffffffff16600160009054906101000a900473ffffffffffffffffffffffffffffffffffffffff1660405161130b92919061260d565b60405180910390a1600160009054906101000a900473ffffffffffffffffffffffffffffffffffffffff166000806101000a81548173ffffffffffffffffffffffffffffffffffffffff021916908373ffffffffffffffffffffffffffffffffffffffff1602179055506000600160006101000a81548173ffffffffffffffffffffffffffffffffffffffff021916908373ffffffffffffffffffffffffffffffffffffffff160217905550565b60085481565b60006113cd42600754611beb565b905090565b6113da611ab9565b600660009054906101000a900473ffffffffffffffffffffffffffffffffffffffff1673ffffffffffffffffffffffffffffffffffffffff168273ffffffffffffffffffffffffffffffffffffffff16141580156114865750600560019054906101000a900473ffffffffffffffffffffffffffffffffffffffff1673ffffffffffffffffffffffffffffffffffffffff168273ffffffffffffffffffffffffffffffffffffffff1614155b6114c5576040517f08c379a00000000000000000000000000000000000000000000000000000000081526004016114bc9061280e565b60405180910390fd5b61151060008054906101000a900473ffffffffffffffffffffffffffffffffffffffff16828473ffffffffffffffffffffffffffffffffffffffff16611b499092919063ffffffff16565b7f8c1256b8896378cd5044f80c202f9772b9d77dc85c8a6eb51967210b09bfaa28828260405161154192919061266d565b60405180910390a15050565b600c6020528060005260406000206000915090505481565b60008054906101000a900473ffffffffffffffffffffffffffffffffffffffff1681565b60045481565b600260035414156115d5576040517f08c379a00000000000000000000000000000000000000000000000000000000081526004016115cc9061286e565b60405180910390fd5b6002600381905550600560009054906101000a900460ff161561162d576040517f08c379a0000000000000000000000000000000000000000000000000000000008152600401611624906127ce565b60405180910390fd5b3361163661194f565b600b819055506116446113bf565b600a81905550600073ffffffffffffffffffffffffffffffffffffffff168173ffffffffffffffffffffffffffffffffffffffff161461171157611687816105a4565b600d60008373ffffffffffffffffffffffffffffffffffffffff1673ffffffffffffffffffffffffffffffffffffffff16815260200190815260200160002081905550600b54600c60008373ffffffffffffffffffffffffffffffffffffffff1673ffffffffffffffffffffffffffffffffffffffff168152602001908152602001600020819055505b60008211611754576040517f08c379a000000000000000000000000000000000000000000000000000000000815260040161174b9061272e565b60405180910390fd5b61176982600e54611aa390919063ffffffff16565b600e819055506117c182600f60003373ffffffffffffffffffffffffffffffffffffffff1673ffffffffffffffffffffffffffffffffffffffff16815260200190815260200160002054611aa390919063ffffffff16565b600f60003373ffffffffffffffffffffffffffffffffffffffff1673ffffffffffffffffffffffffffffffffffffffff16815260200190815260200160002081905550611853333084600660009054906101000a900473ffffffffffffffffffffffffffffffffffffffff1673ffffffffffffffffffffffffffffffffffffffff16611c04909392919063ffffffff16565b3373ffffffffffffffffffffffffffffffffffffffff167f9e71bc8eea02a63969f509818f2dafb9254532904319f9dbda79b67bd34a5f3d83604051611899919061288e565b60405180910390a250600160038190555050565b600a5481565b6118bb611ab9565b600060075414806118cd575060075442115b61190c576040517f08c379a0000000000000000000000000000000000000000000000000000000008152600401611903906126ee565b60405180910390fd5b806009819055507ffb46ca5a5e06d4540d6387b930a7c978bce0db5f449ec6b3f5d07c6e1d44f2d3600954604051611944919061288e565b60405180910390a150565b600080600e54141561196557600b5490506119da565b6119d76119c6600e546119b8670de0b6b3a76400006119aa60085461199c600a5461198e6113bf565b611a6190919063ffffffff16565b611a7790919063ffffffff16565b611a7790919063ffffffff16565b611a8d90919063ffffffff16565b600b54611aa390919063ffffffff16565b90505b90565b600560019054906101000a900473ffffffffffffffffffffffffffffffffffffffff1681565b600b5481565b611a51600f60003373ffffffffffffffffffffffffffffffffffffffff1673ffffffffffffffffffffffffffffffffffffffff1681526020019081526020016000205461087a565b611a59610ece565b565b60075481565b60008183611a6f91906129bc565b905092915050565b60008183611a859190612962565b905092915050565b60008183611a9b9190612931565b905092915050565b60008183611ab191906128db565b905092915050565b60008054906101000a900473ffffffffffffffffffffffffffffffffffffffff1673ffffffffffffffffffffffffffffffffffffffff163373ffffffffffffffffffffffffffffffffffffffff1614611b47576040517f08c379a0000000000000000000000000000000000000000000000000000000008152600401611b3e9061276e565b60405180910390fd5b565b611be68363a9059cbb7c0100000000000000000000000000000000000000000000000000000000028484604051602401611b8492919061266d565b604051602081830303815290604052907bffffffffffffffffffffffffffffffffffffffffffffffffffffffff19166020820180517bffffffffffffffffffffffffffffffffffffffffffffffffffffffff8381831617835250505050611ca9565b505050565b6000818310611bfa5781611bfc565b825b905092915050565b611ca3846323b872dd7c010000000000000000000000000000000000000000000000000000000002858585604051602401611c4193929190612636565b604051602081830303815290604052907bffffffffffffffffffffffffffffffffffffffffffffffffffffffff19166020820180517bffffffffffffffffffffffffffffffffffffffffffffffffffffffff8381831617835250505050611ca9565b50505050565b6000611d0b826040518060400160405280602081526020017f5361666545524332303a206c6f772d6c6576656c2063616c6c206661696c65648152508573ffffffffffffffffffffffffffffffffffffffff16611d709092919063ffffffff16565b9050600081511115611d6b5780806020019051810190611d2b9190612024565b611d6a576040517f08c379a0000000000000000000000000000000000000000000000000000000008152600401611d619061284e565b60405180910390fd5b5b505050565b6060611d7f8484600085611d88565b90509392505050565b6060823073ffffffffffffffffffffffffffffffffffffffff16311015611de4576040517f08c379a0000000000000000000000000000000000000000000000000000000008152600401611ddb9061274e565b60405180910390fd5b611ded85611eb3565b611e2c576040517f08c379a0000000000000000000000000000000000000000000000000000000008152600401611e23906127ee565b60405180910390fd5b6000808673ffffffffffffffffffffffffffffffffffffffff168587604051611e5591906125db565b60006040518083038185875af1925050503d8060008114611e92576040519150601f19603f3d011682016040523d82523d6000602084013e611e97565b606091505b5091509150611ea7828286611ec6565b92505050949350505050565b600080823b905060008111915050919050565b60608315611ed657829050611f26565b600083511115611ee95782518084602001fd5b816040517f08c379a0000000000000000000000000000000000000000000000000000000008152600401611f1d91906126cc565b60405180910390fd5b9392505050565b600081359050611f3c81612afe565b92915050565b600081359050611f5181612b15565b92915050565b600081519050611f6681612b15565b92915050565b600081359050611f7b81612b2c565b92915050565b600081519050611f9081612b2c565b92915050565b600060208284031215611fa857600080fd5b6000611fb684828501611f2d565b91505092915050565b60008060408385031215611fd257600080fd5b6000611fe085828601611f2d565b9250506020611ff185828601611f6c565b9150509250929050565b60006020828403121561200d57600080fd5b600061201b84828501611f42565b91505092915050565b60006020828403121561203657600080fd5b600061204484828501611f57565b91505092915050565b60006020828403121561205f57600080fd5b600061206d84828501611f6c565b91505092915050565b60006020828403121561208857600080fd5b600061209684828501611f81565b91505092915050565b6120a8816129f0565b82525050565b6120b781612a02565b82525050565b60006120c8826128a9565b6120d281856128bf565b93506120e2818560208601612a5c565b80840191505092915050565b6120f781612a38565b82525050565b6000612108826128b4565b61211281856128ca565b9350612122818560208601612a5c565b61212b81612aed565b840191505092915050565b60006121436058836128ca565b91507f50726576696f7573207265776172647320706572696f64206d7573742062652060008301527f636f6d706c657465206265666f7265206368616e67696e67207468652064757260208301527f6174696f6e20666f7220746865206e657720706572696f6400000000000000006040830152606082019050919050565b60006121cf6035836128ca565b91507f596f75206d757374206265206e6f6d696e61746564206265666f726520796f7560008301527f2063616e20616363657074206f776e65727368697000000000000000000000006020830152604082019050919050565b6000612235600e836128ca565b91507f43616e6e6f74207374616b6520300000000000000000000000000000000000006000830152602082019050919050565b60006122756026836128ca565b91507f416464726573733a20696e73756666696369656e742062616c616e636520666f60008301527f722063616c6c00000000000000000000000000000000000000000000000000006020830152604082019050919050565b60006122db602f836128ca565b91507f4f6e6c792074686520636f6e7472616374206f776e6572206d6179207065726660008301527f6f726d207468697320616374696f6e00000000000000000000000000000000006020830152604082019050919050565b60006123416011836128ca565b91507f43616e6e6f7420776974686472617720300000000000000000000000000000006000830152602082019050919050565b60006123816018836128ca565b91507f50726f76696465642072657761726420746f6f206869676800000000000000006000830152602082019050919050565b60006123c1603c836128ca565b91507f5468697320616374696f6e2063616e6e6f7420626520706572666f726d65642060008301527f7768696c652074686520636f6e747261637420697320706175736564000000006020830152604082019050919050565b6000612427601d836128ca565b91507f416464726573733a2063616c6c20746f206e6f6e2d636f6e74726163740000006000830152602082019050919050565b6000612467602d836128ca565b91507f43616e6e6f7420776974686472617720746865207374616b696e67206f72207260008301527f65776172647320746f6b656e73000000000000000000000000000000000000006020830152604082019050919050565b60006124cd602a836128ca565b91507f43616c6c6572206973206e6f742052657761726473446973747269627574696f60008301527f6e20636f6e7472616374000000000000000000000000000000000000000000006020830152604082019050919050565b6000612533602a836128ca565b91507f5361666545524332303a204552433230206f7065726174696f6e20646964206e60008301527f6f742073756363656564000000000000000000000000000000000000000000006020830152604082019050919050565b6000612599601f836128ca565b91507f5265656e7472616e637947756172643a207265656e7472616e742063616c6c006000830152602082019050919050565b6125d581612a2e565b82525050565b60006125e782846120bd565b915081905092915050565b6000602082019050612607600083018461209f565b92915050565b6000604082019050612622600083018561209f565b61262f602083018461209f565b9392505050565b600060608201905061264b600083018661209f565b612658602083018561209f565b61266560408301846125cc565b949350505050565b6000604082019050612682600083018561209f565b61268f60208301846125cc565b9392505050565b60006020820190506126ab60008301846120ae565b92915050565b60006020820190506126c660008301846120ee565b92915050565b600060208201905081810360008301526126e681846120fd565b905092915050565b6000602082019050818103600083015261270781612136565b9050919050565b60006020820190508181036000830152612727816121c2565b9050919050565b6000602082019050818103600083015261274781612228565b9050919050565b6000602082019050818103600083015261276781612268565b9050919050565b60006020820190508181036000830152612787816122ce565b9050919050565b600060208201905081810360008301526127a781612334565b9050919050565b600060208201905081810360008301526127c781612374565b9050919050565b600060208201905081810360008301526127e7816123b4565b9050919050565b600060208201905081810360008301526128078161241a565b9050919050565b600060208201905081810360008301526128278161245a565b9050919050565b60006020820190508181036000830152612847816124c0565b9050919050565b6000602082019050818103600083015261286781612526565b9050919050565b600060208201905081810360008301526128878161258c565b9050919050565b60006020820190506128a360008301846125cc565b92915050565b600081519050919050565b600081519050919050565b600081905092915050565b600082825260208201905092915050565b60006128e682612a2e565b91506128f183612a2e565b9250827fffffffffffffffffffffffffffffffffffffffffffffffffffffffffffffffff0382111561292657612925612a8f565b5b828201905092915050565b600061293c82612a2e565b915061294783612a2e565b92508261295757612956612abe565b5b828204905092915050565b600061296d82612a2e565b915061297883612a2e565b9250817fffffffffffffffffffffffffffffffffffffffffffffffffffffffffffffffff04831182151516156129b1576129b0612a8f565b5b828202905092915050565b60006129c782612a2e565b91506129d283612a2e565b9250828210156129e5576129e4612a8f565b5b828203905092915050565b60006129fb82612a0e565b9050919050565b60008115159050919050565b600073ffffffffffffffffffffffffffffffffffffffff82169050919050565b6000819050919050565b6000612a4382612a4a565b9050919050565b6000612a5582612a0e565b9050919050565b60005b83811015612a7a578082015181840152602081019050612a5f565b83811115612a89576000848401525b50505050565b7f4e487b7100000000000000000000000000000000000000000000000000000000600052601160045260246000fd5b7f4e487b7100000000000000000000000000000000000000000000000000000000600052601260045260246000fd5b6000601f19601f8301169050919050565b612b07816129f0565b8114612b1257600080fd5b50565b612b1e81612a02565b8114612b2957600080fd5b50565b612b3581612a2e565b8114612b4057600080fd5b5056fea26469706673582212202ecf59f793dcaf28fc40665863c4f7a8f78a5adaab559e48321a9a5fda3cc1e364736f6c63430008000033",
  "immutableReferences": {},
  "source": "// SPDX-License-Identifier: UNLICENSED\npragma solidity ^0.8.0;\n\nimport \"@openzeppelin/contracts/utils/math/Math.sol\";\nimport \"@openzeppelin/contracts/utils/math/SafeMath.sol\";\nimport \"@openzeppelin/contracts/token/ERC20/ERC20.sol\";\nimport \"@openzeppelin/contracts/token/ERC20/utils/SafeERC20.sol\";\nimport \"@openzeppelin/contracts/security/ReentrancyGuard.sol\";\n\n// Inheritance\n// import \"./interfaces/IStakingRewards.sol\";\n// import \"./RewardsDistributionRecipient.sol\";\n// import \"./Pausable.sol\";\n// import \"./Owned.sol\";\n// https://docs.synthetix.io/contracts/Owned\n//SPDX LICENSE : MIT\n\n\n\n// Inheritance\n// import \"./interfaces/IStakingRewards.sol\";\n// import \"./RewardsDistributionRecipient.sol\";\n// import \"./Pausable.sol\";\n// import \"./Owned.sol\";\n// https://docs.synthetix.io/contracts/Owned\ncontract Owned {\n    address public owner;\n    address public nominatedOwner;\n\n    constructor(address _owner) public {\n        require(_owner != address(0), \"Owner address cannot be 0\");\n        owner = _owner;\n        emit OwnerChanged(address(0), _owner);\n    }\n\n    function nominateNewOwner(address _owner) external onlyOwner {\n        nominatedOwner = _owner;\n        emit OwnerNominated(_owner);\n    }\n\n    function acceptOwnership() external {\n        require(msg.sender == nominatedOwner, \"You must be nominated before you can accept ownership\");\n        emit OwnerChanged(owner, nominatedOwner);\n        owner = nominatedOwner;\n        nominatedOwner = address(0);\n    }\n\n    modifier onlyOwner {\n        _onlyOwner();\n        _;\n    }\n\n    function _onlyOwner() private view {\n        require(msg.sender == owner, \"Only the contract owner may perform this action\");\n    }\n\n    event OwnerNominated(address newOwner);\n    event OwnerChanged(address oldOwner, address newOwner);\n}\n\n\n\n// https://docs.synthetix.io/contracts/Pausable\nabstract\ncontract Pausable is Owned {\n    uint public lastPauseTime;\n    bool public paused;\n\n    constructor() internal {\n        // This contract is abstract, and thus cannot be instantiated directly\n        require(owner != address(0), \"Owner must be set\");\n        // Paused will be false, and lastPauseTime will be 0 upon initialisation\n    }\n\n    /**\n     * @notice Change the paused state of the contract\n     * @dev Only the contract owner may call this.\n     */\n    function setPaused(bool _paused) external onlyOwner {\n        // Ensure we're actually changing the state before we do anything\n        if (_paused == paused) {\n            return;\n        }\n\n        // Set our paused state.\n        paused = _paused;\n\n        // If applicable, set the last pause time.\n        if (paused) {\n            lastPauseTime = block.timestamp;\n        }\n\n        // Let everyone know that our pause state has changed.\n        emit PauseChanged(paused);\n    }\n\n    event PauseChanged(bool isPaused);\n\n    modifier notPaused {\n        require(!paused, \"This action cannot be performed while the contract is paused\");\n        _;\n    }\n}\n\n\n// https://docs.synthetix.io/contracts/RewardsDistributionRecipient\nabstract\ncontract RewardsDistributionRecipient is Owned {\n    address public rewardsDistribution;\n\n    function notifyRewardAmount(uint256 reward) external virtual;\n\n    modifier onlyRewardsDistribution() {\n        require(msg.sender == rewardsDistribution, \"Caller is not RewardsDistribution contract\");\n        _;\n    }\n\n    function setRewardsDistribution(address _rewardsDistribution) external onlyOwner {\n        rewardsDistribution = _rewardsDistribution;\n    }\n}\n\n\ninterface IStakingRewards {\n    // Views\n    function lastTimeRewardApplicable() external view returns (uint256);\n\n    function rewardPerToken() external view returns (uint256);\n\n    function earned(address account) external view returns (uint256);\n\n    function getRewardForDuration() external view returns (uint256);\n\n    function totalSupply() external view returns (uint256);\n\n    function balanceOf(address account) external view returns (uint256);\n\n    // Mutative\n\n    function stake(uint256 amount) external;\n\n    function withdraw(uint256 amount) external;\n\n    function getReward() external;\n\n    function exit() external;\n}\n\ncontract X22 is ERC20 {\n   \n    constructor() public ERC20(\"x22Dev\", \"x22d\") {\n       \n        _mint(msg.sender, 100000000 * 10 ** 18);\n    }\n}\n\ncontract StakingRewards is IStakingRewards, RewardsDistributionRecipient, ReentrancyGuard, Pausable {\n    using SafeMath for uint256;\n     using SafeERC20 for X22;\n\n    /* ========== STATE VARIABLES ========== */\n\n    X22 public rewardsToken;\n   X22 public stakingToken;\n    uint256 public periodFinish = 0;\n    uint256 public rewardRate = 0;\n    uint256 public rewardsDuration = 7 days;\n    uint256 public lastUpdateTime;\n    uint256 public rewardPerTokenStored;\n\n    mapping(address => uint256) public userRewardPerTokenPaid;\n    mapping(address => uint256) public rewards;\n\n    uint256 private _totalSupply;\n    mapping(address => uint256) private _balances;\n\n    /* ========== CONSTRUCTOR ========== */\n\n    constructor(\n        address _owner,\n        address _rewardsDistribution,\n        address _rewardsToken,\n        address _stakingToken\n    ) public Owned(_owner) {\n        \n        rewardsToken = X22(_rewardsToken);\n        stakingToken = X22(_stakingToken);\n        rewardsDistribution = _rewardsDistribution;\n    }\n\n    /* ========== VIEWS ========== */\n\n    function totalSupply() external view override returns (uint256) {\n        return _totalSupply;\n    }\n\n    function balanceOf(address account) external view override returns (uint256) {\n        return _balances[account];\n    }\n\n    function lastTimeRewardApplicable() public view override returns (uint256) {\n        return Math.min(block.timestamp, periodFinish);\n    }\n\n    function rewardPerToken() public view override returns (uint256) {\n        if (_totalSupply == 0) {\n            return rewardPerTokenStored;\n        }\n        return\n            rewardPerTokenStored.add(\n                lastTimeRewardApplicable().sub(lastUpdateTime).mul(rewardRate).mul(1e18).div(_totalSupply)\n            );\n    }\n\n    function earned(address account) public view override returns (uint256) {\n        return _balances[account].mul(rewardPerToken().sub(userRewardPerTokenPaid[account])).div(1e18).add(rewards[account]);\n    }\n\n    function getRewardForDuration() external view override returns (uint256) {\n        return rewardRate.mul(rewardsDuration);\n        \n        \n    }\n\n    /* ========== MUTATIVE FUNCTIONS ========== */\n\n    function stake(uint256 amount) external override nonReentrant notPaused updateReward(msg.sender) {\n        require(amount > 0, \"Cannot stake 0\");\n        _totalSupply = _totalSupply.add(amount);\n        _balances[msg.sender] = _balances[msg.sender].add(amount);\n        stakingToken.safeTransferFrom(msg.sender, address(this), amount);\n        emit Staked(msg.sender, amount);\n    }\n\n    function withdraw(uint256 amount) public override nonReentrant updateReward(msg.sender) {\n        require(amount > 0, \"Cannot withdraw 0\");\n        _totalSupply = _totalSupply.sub(amount);\n        _balances[msg.sender] = _balances[msg.sender].sub(amount);\n        stakingToken.safeTransfer(msg.sender, amount);\n        emit Withdrawn(msg.sender, amount);\n    }\n\n    function getReward() public override nonReentrant updateReward(msg.sender) {\n        uint256 reward = rewards[msg.sender];\n        if (reward > 0) {\n            rewards[msg.sender] = 0;\n            rewardsToken.safeTransfer(msg.sender, reward);\n            emit RewardPaid(msg.sender, reward);\n        }\n    }\n\n    function exit() external override {\n        withdraw(_balances[msg.sender]);\n        getReward();\n    }\n\n    /* ========== RESTRICTED FUNCTIONS ========== */\n\n    function notifyRewardAmount(uint256 reward) external override onlyRewardsDistribution updateReward(address(0)) {\n        if (block.timestamp >= periodFinish) {\n            rewardRate = reward.div(rewardsDuration);\n        } else {\n            uint256 remaining = periodFinish.sub(block.timestamp);\n            uint256 leftover = remaining.mul(rewardRate);\n            rewardRate = reward.add(leftover).div(rewardsDuration);\n        }\n\n        // Ensure the provided reward amount is not more than the balance in the contract.\n        // This keeps the reward rate in the right range, preventing overflows due to\n        // very high values of rewardRate in the earned and rewardsPerToken functions;\n        // Reward + leftover must be less than 2^256 / 10^18 to avoid overflow.\n        uint balance = rewardsToken.balanceOf(address(this));\n        require(rewardRate <= balance.div(rewardsDuration), \"Provided reward too high\");\n\n        lastUpdateTime = block.timestamp;\n        periodFinish = block.timestamp.add(rewardsDuration);\n        emit RewardAdded(reward);\n    }\n\n    // Added to support recovering LP Rewards from other systems to be distributed to holders\n    function recoverERC20(address tokenAddress, uint256 tokenAmount) external onlyOwner {\n        // Cannot recover the staking token or the rewards token\n        require(\n            tokenAddress != address(stakingToken) && tokenAddress != address(rewardsToken),\n            \"Cannot withdraw the staking or rewards tokens\"\n        );\n       X22(tokenAddress).safeTransfer(owner, tokenAmount);\n        emit Recovered(tokenAddress, tokenAmount);\n    }\n\n    function setRewardsDuration(uint256 _rewardsDuration) external onlyOwner {\n        require(\n            periodFinish == 0 || block.timestamp > periodFinish,\n            \"Previous rewards period must be complete before changing the duration for the new period\"\n        );\n        rewardsDuration = _rewardsDuration;\n        emit RewardsDurationUpdated(rewardsDuration);\n    }\n\n    /* ========== MODIFIERS ========== */\n\n    modifier updateReward(address account) {\n        rewardPerTokenStored = rewardPerToken();\n        lastUpdateTime = lastTimeRewardApplicable();\n        if (account != address(0)) {\n            rewards[account] = earned(account);\n            userRewardPerTokenPaid[account] = rewardPerTokenStored;\n        }\n        _;\n    }\n\n    /* ========== EVENTS ========== */\n\n    event RewardAdded(uint256 reward);\n    event Staked(address indexed user, uint256 amount);\n    event Withdrawn(address indexed user, uint256 amount);\n    event RewardPaid(address indexed user, uint256 reward);\n    event RewardsDurationUpdated(uint256 newDuration);\n    event Recovered(address token, uint256 amount);\n}",
  "sourcePath": "/home/ishita/Documents/Staking-x22/contracts/Staking.sol",
  "compiler": {
    "name": "solc",
    "version": "0.8.0+commit.c7dfd78e.Emscripten.clang"
  },
  "schemaVersion": "3.3.4",
  "updatedAt": "2021-05-10T11:50:39.594Z",
  "devdoc": {
    "kind": "dev",
    "methods": {
      "setPaused(bool)": {
        "details": "Only the contract owner may call this."
      }
    },
    "version": 1
  },
  "userdoc": {
    "kind": "user",
    "methods": {
      "setPaused(bool)": {
        "notice": "Change the paused state of the contract"
      }
    },
    "version": 1
  }
}